:020000040800F2
:10000000008000207D0400080D040008130400088F
:10001000190400081F04000825040008000000005F
:100020000000000000000000000000002B04000899
:100030003704000800000000430400084F040008D3
:10004000CD040008CD040008CD040008CD0400084C
:10005000CD040008CD040008CD040008CD0400083C
:10006000CD040008CD040008CD040008CD0400082C
:10007000CD040008CD040008CD040008CD0400081C
:10008000CD040008CD040008CD040008CD0400080C
:1000900000000000CD040008CD040008CD040008D5
:1000A000CD040008CD040008CD040008CD040008EC
:1000B000CD040008CD040008CD040008CD040008DC
:1000C000CD040008CD040008CD040008CD040008CC
:1000D000CD040008CD040008CD0400085D0400082C
:1000E000CD040008CD040008CD040008CD040008AC
:1000F000CD0400080000000000000000CD0400084E
:10010000CD040008CD040008CD040008CD0400088B
:10011000CD040008CD040008CD040008CD0400087B
:10012000CD040008CD040008CD040008CD0400086B
:08013000CD040008CD04000815
:1001380010B5054C237833B9044B13B10448AFF319
:1001480000800123237010BD0C0000200000000077
:10015800002A000808B5034B1BB103490348AFF355
:10016800008008BD0000000010000020002A0008E0
:1001780080B485B000AF78604FF0B043DA6C4FF0D0
:10018800B0417B681343CB644FF0B043DA6C7B68B3
:100198001340FB60FB6800BF1437BD4680BC704746
:1001A80080B500AF00F090F900F01AF800F09AF866
:1001B80000F06CF8012000F0BBF84FF47A410748D2
:1001C80000F0D8FD012001F013F9002000F0B0F88C
:1001D8004FF4FA6000F0EEF9ECE700BF28000020C9
:1001E80080B59AB000AF07F12003482200211846D5
:1001F80002F0FAFB07F1080300221A605A609A60BD
:10020800DA601A615A61204B1B6823F4C0631E4AE6
:1002180043F4806313601C4B1B6803F4C0637B606A
:100228007B6828233B6201233B6400237B646023B3
:10023800BB640023FB630123BB630023FB6407F15A
:100248002003184601F078FB0346002B01D000F08C
:1002580081F84F23BB600023FB6000233B61002330
:100268007B610023BB610023FB6107F108030021C8
:10027800184601F0FDFE0346002B01D000F06AF895
:1002880000BF6837BD4680BD0004005880B500AF88
:10029800124B134A1A60114B00225A600F4B00226E
:1002A8009A600E4B4FF6FF725A610C4B00221A628D
:1002B8000A4B00225A62094B00229A62074B00221D
:1002C800DA62064B00221A63044800F08BFC0346EE
:1002D800002B01D000F03EF800BF80BD28000020B0
:1002E800007C004080B586B000AF3B1D00221A603C
:1002F8005A609A60DA601A610220FFF739FF00221B
:1003080020210A4800F0E6FB20237B600123BB6024
:100318000023FB6000233B613B1D1946034800F0A6
:1003280079FA00BF1837BD4680BD00BF00040048F9
:1003380080B582B000AF78607B68DBB21A462021B6
:10034800034800F0C7FB002318460837BD4680BDA8
:100358000004004880B400AF72B600BFFEE780B466
:1003680085B000AF78604FF0B0439A6D4FF0B04160
:100378007B6813438B654FF0B0439A6D7B681340DD
:10038800FB60FB6800BF1437BD4680BC704780B473
:1003980000AF00BFBD4680BC7047000080B590B07C
:1003A80000AF786007F1080338220021184602F0F0
:1003B8001BFB7B681B68114A93421AD14FF40073E8
:1003C800BB600F4BBB6207F10803184602F0CEF979
:1003D8000346002B01D0FFF7BDFF4FF00040FFF7A9
:1003E800BEFF00220021272000F0DFF9272000F0BF
:1003F800F6F900BF4037BD4680BD00BF007C004015
:1004080004000C0080B400AFFEE780B400AFFEE744
:1004180080B400AFFEE780B400AFFEE780B400AF61
:10042800FEE780B400AF00BFBD4680BC704780B413
:1004380000AF00BFBD4680BC704780B400AF00BFAE
:10044800BD4680BC704780B500AF00F097F800BF8C
:1004580080BD000080B500AF024800F02DFD00BF50
:1004680080BD00BF2800002080B400AF00BFBD469B
:1004780080BC70470D488546FFF7F6FF0C480D49CC
:100488000D4A002302E0D458C4500433C4188C42E7
:10049800F9D30A4A0A4C002301E013600432A2424D
:1004A800FBD302F07DFAFFF77BFEFEE70080002019
:1004B800000000200C000020BC2A00080C000020CE
:1004C80068000020FEE7000080B582B000AF00237E
:1004D800FB71032000F05EF901F08EFF0346094A24
:1004E80013600F2000F010F80346002B02D0012300
:1004F800FB7101E0FFF74BFFFB7918460837BD4653
:1005080080BD00BF0000002080B584B000AF7860D7
:100518000023FB73174B1B78002B24D001F06CFFD2
:100528000246144B1B7819464FF47A73B3FBF1F368
:10053800B2FBF3F3184600F060F90346002B0FD125
:100548007B680F2B09D8002279684FF0FF3000F044
:100558002CF9094A7B68136007E00123FB7304E068
:100568000123FB7301E00123FB73FB7B1846103763
:10057800BD4680BD080000200400002080B400AF04
:10058800054B1B781A46054B1B681344034A136036
:1005980000BFBD4680BC70470800002064000020F2
:1005A80080B400AF024B1B681846BD4680BC70473C
:1005B8006400002080B584B000AF7860FFF7F0FFDA
:1005C800B8607B68FB60FB68B3F1FF3F05D00A4B5E
:1005D8001B781A46FB681344FB6000BFFFF7E0FF77
:1005E8000246BB68D31AFA689A42F7D800BF00BF20
:1005F8001037BD4680BD00BF0800002080B485B01C
:1006080000AF78607B6803F00703FB600C4BDB6886
:10061800BB60BA684FF6FF031340BB60FB681A0261
:10062800BB68134343F0BF6343F40033BB60044A21
:10063800BB68D36000BF1437BD4680BC704700BF9D
:1006480000ED00E080B400AF044BDB681B0A03F048
:1006580007031846BD4680BC704700BF00ED00E0A8
:1006680080B483B000AF0346FB7197F90730002BC5
:100678000BDBFB7903F01F02064997F907305B098A
:10068800012000FA02F241F8232000BF0C37BD46D2
:1006980080BC704700E100E080B483B000AF03463F
:1006A8003960FB7197F90730002B0ADB3B68DAB237
:1006B8000C4997F907301201D2B20B4483F8002392
:1006C8000AE03B68DAB20849FB7903F00F03043B00
:1006D8001201D2B20B441A7600BF0C37BD4680BC5B
:1006E800704700BF00E100E000ED00E080B489B091
:1006F80000AFF860B9607A60FB6803F00703FB613C
:10070800FB69C3F10703042B28BF0423BB61FB6902
:100718000433062B02D9FB69033B00E000237B610D
:100728004FF0FF32BB6902FA03F3DA43BB681A40A1
:100738007B699A404FF0FF317B6901FA03F3D94393
:100748007B680B40134318462437BD4680BC70476E
:1007580080B582B000AF78607B68013BB3F1807FE1
:1007680001D301230FE00A4A7B68013B53600F2144
:100778004FF0FF30FFF790FF054B00229A60044BC3
:1007880007221A60002318460837BD4680BD00BFFF
:1007980010E000E080B582B000AF78607868FFF7BD
:1007A8002DFF00BF0837BD4680BD80B586B000AFBD
:1007B8000346B9607A60FB73FFF744FF78617A6893
:1007C800B9687869FFF792FF024697F90F3011462A
:1007D8001846FFF761FF00BF1837BD4680BD80B5DA
:1007E80082B000AF0346FB7197F907301846FFF750
:1007F80037FF00BF0837BD4680BD80B582B000AF67
:1008080078607868FFF7A4FF034618460837BD46A6
:1008180080BD000080B487B000AF786039600023E5
:100828007B6140E13B681A6801217B6901FA03F3A7
:100838001340FB60FB68002B00F032813B685B686B
:1008480003F00303012B05D03B685B6803F0030347
:10085800022B30D17B689B683B617B695B0003227C
:1008680002FA03F3DB433A6913403B613B68DA68F9
:100878007B695B0002FA03F33A6913433B617B68C7
:100888003A699A607B685B683B6101227B6902FA7E
:1008980003F3DB433A6913403B613B685B681B0920
:1008A80003F001027B6902FA03F33A6913433B61DF
:1008B8007B683A695A603B685B6803F00303032B63
:1008C80017D07B68DB683B617B695B00032202FA17
:1008D80003F3DB433A6913403B613B689A687B69E1
:1008E8005B0002FA03F33A6913433B617B683A6998
:1008F800DA603B685B6803F00303022B23D17B6952
:10090800DA087B68083253F822303B617B6903F0D0
:1009180007039B000F2202FA03F3DB433A691340F3
:100928003B613B681A697B6903F007039B0002FA85
:1009380003F33A6913433B617B69DA087B68083241
:10094800396943F822107B681B683B617B695B004F
:10095800032202FA03F3DB433A6913403B613B6825
:100968005B6803F003027B695B0002FA03F33A69F0
:1009780013433B617B683A691A603B685B6803F420
:100988004033002B00F08C804E4A7B699B08023371
:1009980052F823303B617B6903F003039B00072275
:1009A80002FA03F3DB433A6913403B617B68B3F116
:1009B800904F0DD07B68444A934207D07B68434AE6
:1009C800934201D1022304E0072302E0012300E05F
:1009D80000237A6902F00302920093403A691343B4
:1009E8003B6138497B699B0802333A6941F8232007
:1009F800374BD3F880303B61FB68DB433A691340DF
:100A08003B613B685B6803F48033002B03D03A6991
:100A1800FB6813433B612E4A3B69C2F880302C4B7C
:100A2800D3F884303B61FB68DB433A6913403B6190
:100A38003B685B6803F40033002B03D03A69FB681A
:100A480013433B61224A3B69C2F88430204B1B6840
:100A58003B61FB68DB433A6913403B613B685B6879
:100A680003F48013002B03D03A69FB6813433B61FE
:100A7800174A3B691360164B5B683B61FB68DB43B5
:100A88003A6913403B613B685B6803F40013002B31
:100A980003D03A69FB6813433B610D4A3B695360D5
:100AA8007B6901337B613B681A687B6922FA03F32F
:100AB800002B7FF4B7AE00BF00BF1C37BD4680BC1B
:100AC800704700BF000001400004004800080048CB
:100AD8000008005880B483B000AF78600B467B8074
:100AE80013467B707B78002B03D07A887B689A61E9
:100AF80002E07A887B689A6200BF0C37BD4680BCEA
:100B0800704780B483B000AF78604FF0B043D3F83B
:100B180088207B681B0C1B04DB431A407B681B0482
:100B28004FF0B0411343C1F8883000BF0C37BD46C1
:100B380080BC704780B483B000AF78604FF0B0439A
:100B4800D3F888207B6813401A0C7B681343184637
:100B58000C37BD4680BC704780B483B000AF786066
:100B68004FF0B0439A6B4FF0B0417B6813438B63EF
:100B780000BF0C37BD4680BC704780B483B000AF5F
:100B880078604FF0B043DA6B4FF0B0417B681343A5
:100B9800CB6300BF0C37BD4680BC704780B483B0C0
:100BA80000AF78604FF0B0439A6B7B68DB434FF03F
:100BB800B04113408B6300BF0C37BD4680BC704703
:100BC80080B483B000AF78604FF0B043DA6B7B68D5
:100BD800DB434FF0B0411340CB6300BF0C37BD4639
:100BE80080BC704780B584B000AF78607B68002B0C
:100BF80001D10123B6E07B685B68012B7B6893F821
:100C08003A30DBB2002B06D17B68002283F839200A
:100C18007868FFF7C3FB7B68022283F83A207B6879
:100C28001B681A697B681B6842F001021A617B68BD
:100C38001B684FF480725A607B681B687A68526B35
:100C48009A624FF48071786800F05CFA0346032BCF
:100C580001D1032386E0786800F084FA786800F010
:100C680044FA0346032B01D103237BE07B681B680E
:100C7800DB68FB607B685B68012B04D07B689B6A40
:100C8800B3F5000F03D1FB6823F01E03FB607B68FC
:100C98005B694FF6FF72934205D0FB6823F460430B
:100CA80023F0C003FB60FA68304B1340FB607B689D
:100CB8005A687B689B681A437B681B6A1A437B687F
:100CC8005B6A1A437B689B6A1343FA681343FB60A9
:100CD8007B685B68002B07D17B68DA697B681B69D6
:100CE8001343FA681343FB607B685B68012B04D0ED
:100CF8007B689B6AB3F5000F07D17B68DA687B686D
:100D08001B691343FA681343FB607B685B694FF602
:100D1800FF7293420AD07B685A697B689B691A43C1
:100D28007B68DB691343FA681343FB607B681B68C5
:100D3800FA68DA607B681B680D4A934208D17B68C1
:100D4800D96A7B681A6B7B681B680A431A6204E0DD
:100D58007B681B687A68D26A1A627B68012283F80A
:100D68003A20002318461037BD4680BDFEF119FF12
:100D7800007C004080B582B000AF786039607B6845
:100D8800022283F83A207B681B68484A934208D1BC
:100D9800474BD3F88030464A43F00053C2F88030BE
:100DA80015E07B681B68434A934208D1404BD3F84F
:100DB80080303F4A43F08043C2F8803007E03C4B24
:100DC800D3F880303A4A43F00043C2F880307B6859
:100DD8005B68012B0CD07B689B6AB3F5000F07D1C9
:100DE8007B681B68DA687B681B6822F46062DA60DB
:100DF8007B681B681A697B681B6842F001021A61EC
:100E08007B681B6810225A607B681B683A689A6185
:100E18001021786800F076F90346032B01D10323EB
:100E28003FE0786800F09EF9786800F05EF90346C4
:100E3800032B01D1032334E07B681B689A687B6825
:100E48001B6842F010029A607B681B689A687B688E
:100E58001B6842F002029A607B681B689A687B688C
:100E68001B6842F480729A607B681B689A687B688A
:100E78001B6842F080029A607B681B681A697B686D
:100E88001B6842F001021A617B681B681A697B685B
:100E98001B6842F004021A617B68012283F83A2039
:100EA800002318460837BD4680BD00BF007C0040BF
:100EB800000800580094004080B582B000AF786008
:100EC8007B681B681B6803F00103012B0DD17B684D
:100ED8001B689B6803F00103012B06D17B681B6824
:100EE80001225A60786800F0AFF87B681B681B68BD
:100EF80003F00203022B0DD17B681B689B6803F08B
:100F08000203022B06D17B681B6802225A607868AC
:100F180000F0A3F87B681B681B6803F00403042B2C
:100F28000DD17B681B689B6803F00403042B06D172
:100F38007B681B6804225A60786800F097F87B6821
:100F48001B681B6803F00803082B0DD17B681B681E
:100F58009B6803F00803082B06D17B681B680822EE
:100F68005A60786800F08BF87B681B681B6803F090
:100F78001003102B0DD17B681B689B6803F01003CE
:100F8800102B06D17B681B6810225A60786800F025
:100F98007FF87B681B681B6803F02003202B0DD1AA
:100FA8007B681B689B6803F02003202B06D17B68B5
:100FB8001B6820225A60786800F073F87B681B6809
:100FC8001B6803F04003402B0DD17B681B689B68AE
:100FD80003F04003402B06D17B681B6840225A600F
:100FE800786800F067F87B681B681B6803F080036B
:100FF800802B0DD17B681B689B6803F08003802BD6
:1010080006D17B681B6880225A60786800F05BF81C
:101018007B681B681B6803F48073B3F5807F0FD16E
:101028007B681B689B6803F48073B3F5807F07D1E6
:101038007B681B684FF480725A60786800F04CF83F
:1010480000BF0837BD4680BD80B483B000AF78606C
:1010580000BF0C37BD4680BC704780B483B000AF7A
:10106800786000BF0C37BD4680BC704780B483B041
:1010780000AF786000BF0C37BD4680BC704780B4B5
:1010880083B000AF786000BF0C37BD4680BC7047A6
:1010980080B483B000AF786000BF0C37BD4680BC19
:1010A800704780B483B000AF786000BF0C37BD468E
:1010B80080BC704780B483B000AF786000BF0C3745
:1010C800BD4680BC704780B483B000AF786000BF75
:1010D8000C37BD4680BC704780B483B000AF7860E1
:1010E80000BF0C37BD4680BC704780B483B000AFEA
:1010F80078607B6893F83A30DBB218460C37BD4607
:1011080080BC704780B485B000AF78603960002338
:10111800FB73124B1B68124AA2FB03239B0B4FF471
:101128007A7202FB03F3BB60BB68013BBB60BB6820
:10113800002B01D10323FB737B681B681A683B688B
:1011480013403A689A4202D0BB68002BECD1FB7B73
:1011580018461437BD4680BC704700BF0000002009
:101168005917B7D180B58AB000AF786000237B6289
:1011780072B600BF7B681B688D4A934215D08C4AB3
:10118800934218D88B4A934203D08B4A934206D095
:1011980011E04FF44020FFF7CDFC78620CE04FF4EB
:1011A8004010FFF7C7FC786206E04FF44000FFF7F5
:1011B800C1FC786200E000BF7B681B689B683B62EB
:1011C8007B681B68DB68FB617B681B685B69BB61CC
:1011D8007B681B689B697B617B681B681B6A3B613A
:1011E8007B681B689B6AFB607B681B68704A93423C
:1011F80019D06F4A93421DD86E4A934203D06E4A63
:10120800934209D016E04FF00040FFF7A5FC4FF0DD
:101218000040FFF7C3FC0EE02020FFF7AEFC2020C3
:10122800FFF7CEFC07E04020FFF7A7FC4020FFF7C0
:10123800C7FC00E000BFBB69002B06D17B69002B0F
:1012480003D1FB68002B00F096807B681B68584A26
:10125800934213D0564A934215D8564A934203D024
:10126800554A934205D00EE04FF44020FFF749FC61
:101278000AE04FF44010FFF744FC05E04FF440004B
:10128800FFF73FFC00E000BFBB69002B1AD07B686A
:101298001B681A697B681B6842F001021A617B6847
:1012A8001B68BA695A6108217868FFF72BFF034663
:1012B800032B03D17B68032283F83A207B681B68E1
:1012C80008225A607B69002B1AD07B681B681A6950
:1012D8007B681B6842F001021A617B681B687A69A7
:1012E8009A6110217868FFF70DFF0346032B03D19D
:1012F8007B68032283F83A207B681B6810225A60B7
:10130800FB68002B1CD07B681B681A697B681B680C
:1013180042F001021A617B681B68FA689A624FF40E
:1013280080717868FFF7EEFE0346032B03D17B68D4
:10133800032283F83A207B681B684FF480725A6056
:101348007B681B681A4A934211D0194A934214D8F1
:10135800184A934203D0184A934204D00DE0786AA1
:10136800FFF7CFFB0AE0786AFFF7CBFB06E0786A65
:10137800FFF7C7FB02E000BF00E000BF7B681B6807
:101388001A697B681B6822F001021A617B681B6876
:101398003A6A9A607B681B68FA69DA607B681B683E
:1013A8003A691A6262B600BF00BF2837BD4680BDE1
:1013B80000980040007C00400094004080B400AFDA
:1013C800044B1B68034A43F48073136000BFBD4697
:1013D80080BC70470004005880B400AF034B1B6802
:1013E80003F4C0631846BD4680BC7047000400582B
:1013F80080B483B000AF0346FB71104B1B6823F029
:1014080007030E4A43F0020313600D4B1B690C4A95
:1014180043F004031361FB79012B01D130BF02E0D3
:1014280040BF20BF20BF064B1B69054A23F00403B9
:10143800136100BF0C37BD4680BC704700040058DC
:1014480000ED00E080B400AF064B1B6803F4807326
:10145800B3F5807F01D1012300E000231846BD4683
:1014680080BC70470004005880B400AF4FF0B04310
:101478001B684FF0B04243F40013136000BFBD4631
:1014880080BC704780B400AF4FF0B0431B684FF08A
:10149800B04223F40013136000BFBD4680BC704700
:1014A80080B400AF4FF0B0431B6803F48013B3F56A
:1014B800801F01D1012300E000231846BD4680BCEF
:1014C800704780B400AF4FF0B0431B684FF0B04294
:1014D80043F48033136000BFBD4680BC704780B4BE
:1014E80000AF4FF0B0431B684FF0B04223F4803395
:1014F800136000BFBD4680BC704780B400AF4FF09A
:10150800B0431B6803F40033B3F5003F01D1012356
:1015180000E000231846BD4680BC704780B400AF89
:101528004FF0B0431B684FF0B04243F48073136030
:1015380000BFBD4680BC704780B400AF4FF0B043D9
:101548001B684FF0B04223F48073136000BFBD46A0
:1015580080BC704780B400AF4FF0B0431B6803F401
:101568008063B3F5806F01D1012300E000231846A2
:10157800BD4680BC704780B483B000AF78604FF040
:10158800B0435B6823F0FE427B681B064FF0B04116
:1015980013434B6000BF0C37BD4680BC704780B416
:1015A80000AF4FF0B043D3F8903003F00203022BA2
:1015B80001D1012300E000231846BD4680BC7047D6
:1015C80080B400AF4FF0B043D3F894304FF0B0423E
:1015D80043F00103C2F8943000BFBD4680BC704799
:1015E80080B400AF4FF0B043D3F894304FF0B0421E
:1015F80023F00103C2F8943000BFBD4680BC704799
:1016080080B400AF4FF0B043D3F8943003F0020336
:10161800022B01D1012300E000231846BD4680BCFF
:10162800704780B400AF4FF0B0431B684FF0B04232
:1016380043F00103136000BFBD4680BC704780B40F
:1016480000AF4FF0B0431B684FF0B04223F00103E6
:10165800136000BFBD4680BC704780B400AF4FF038
:10166800B0431B6803F00203022B01D1012300E001
:1016780000231846BD4680BC704780B400AF4FF0C9
:10168800B0431B6803F00803082B01D1012300E0D5
:1016980000231846BD4680BC704780B400AF4FF0A9
:1016A800B0431B6803F0F0031846BD4680BC704782
:1016B80080B400AF4FF0B043D3F8943003F47063B4
:1016C8001846BD4680BC704780B483B000AF7860D0
:1016D8004FF0B0435B6823F47F427B681B024FF0F6
:1016E800B04113434B6000BF0C37BD4680BC704708
:1016F80080B483B000AF78604FF0B0439B6823F0AC
:1017080003024FF0B0417B6813438B6000BF0C3776
:10171800BD4680BC704780B400AF4FF0B0439B68B3
:1017280003F00C031846BD4680BC704780B483B0F4
:1017380000AF78604FF0B0439B6823F0F0024FF0A1
:10174800B0417B6813438B6000BF0C37BD4680BC3B
:10175800704780B483B000AF78604FF0B043D3F8DF
:10176800083123F00F027B681B094FF0B041134387
:10177800C1F8083100BF0C37BD4680BC704780B443
:1017880083B000AF78604FF0B0439B6823F4E06209
:101798004FF0B0417B6813438B6000BF0C37BD46E8
:1017A80080BC704780B483B000AF78604FF0B0431E
:1017B8009B6823F460524FF0B0417B6813438B6001
:1017C80000BF0C37BD4680BC704780B400AF4FF0F7
:1017D800B0439B6803F0F0031846BD4680BC7047D1
:1017E80080B400AF4FF0B043D3F808311B0103F0C9
:1017F800F0031846BD4680BC704780B400AF4FF078
:10180800B0431B684FF0B04243F08073136000BFD1
:10181800BD4680BC704780B400AF4FF0B0431B6832
:101828004FF0B04223F08073136000BFBD4680BC08
:10183800704780B400AF4FF0B0431B6803F00073EB
:10184800B3F1007F01D1012300E000231846BD4613
:1018580080BC704780B400AF4FF0B043DB681B0A10
:1018680003F07F031846BD4680BC704780B400AFC4
:101878004FF0B043DB6803F060431846BD4680BCB8
:10188800704780B400AF4FF0B043DB6803F07003DB
:101898001846BD4680BC704780B400AF4FF0B043D7
:1018A800DB6803F003031846BD4680BC704780B46C
:1018B80000AF4FF0B0439B6803F48033B3F5803F2B
:1018C80001D1012300E000231846BD4680BC7047C3
:1018D80080B400AF4FF0B043D3F8083103F480333D
:1018E800B3F5803F01D1012300E000231846BD462F
:1018F80080BC704780B400AF4FF0B0439B6803F4DE
:101908000033B3F5003F01D1012300E0002318465E
:10191800BD4680BC704780B400AF4FF0B0439B68B1
:1019280003F48023B3F5802F01D1012300E00023C5
:101938001846BD4680BC704780B588B000AF786057
:101948007B68002B01D101238BE3FFF7E4FEF861EC
:10195800FFF7A2FFB8617B681B6803F02003002B28
:1019680000F0C980FB69002B05D0FB690C2B7BD1EB
:10197800BB69012B78D1FFF770FE0346002B05D019
:101988007B681B6A002B01D101236AE37B689A6A92
:101998004FF0B0431B6803F00803002B05D04FF04D
:1019A800B0431B6803F0F00306E04FF0B043D3F8F0
:1019B80094301B0903F0F003934222D27B689B6AA0
:1019C800184600F02DFD0346002B01D0012348E303
:1019D8004FF0B0431B684FF0B04243F00803136068
:1019E8004FF0B0431B6823F0F0027B689B6A4FF00E
:1019F800B04113430B607B685B6A1846FFF764FECF
:101A080021E04FF0B0431B684FF0B04243F00803A9
:101A180013604FF0B0431B6823F0F0027B689B6AA9
:101A28004FF0B04113430B607B685B6A1846FFF7C1
:101A38004BFE7B689B6A184600F0F2FC0346002BBD
:101A480001D001230DE300F0D7FC0346A14A13603F
:101A5800A14B1B681846FEF757FD0346FB74FB7C39
:101A6800002B47D0FB7CFCE27B681B6A002B2CD048
:101A7800FFF7D7FDFEF794FD786108E0FEF790FDCB
:101A880002467B69D31A022B01D90323E9E2FFF747
:101A9800E4FD0346002BF1D04FF0B0431B684FF034
:101AA800B04243F0080313604FF0B0431B6823F0C3
:101AB800F0027B689B6A4FF0B04113430B607B6870
:101AC8005B6A1846FFF700FE15E0FFF7B8FDFEF762
:101AD80067FD786108E0FEF763FD02467B69D31A6B
:101AE800022B01D90323BCE2FFF7B7FD0346002B05
:101AF800F1D100E000BF7B681B6803F00103002BF5
:101B08005FD0FB69082B05D0FB690C2B0DD1BB6995
:101B1800032B0AD1FFF7F1FC0346002B50D07B685A
:101B28005B68002B4CD101239BE24FF0B0431B684C
:101B380023F480127B689B684FF0B04113430B601D
:101B48007B685B68B3F5803F02D1FFF7BAFC0DE014
:101B58007B685B68B3F5041F04D1FFF785FCFFF7CA
:101B6800B0FC03E0FFF7BBFCFFF78CFC7B685B680D
:101B7800002B12D0FEF714FD786108E0FEF710FD87
:101B880002467B69D31A642B01D9032369E2FFF764
:101B9800B4FC0346002BF1D013E0FEF701FD786199
:101BA80008E0FEF7FDFC02467B69D31A642B01D9D5
:101BB800032356E2FFF7A1FC0346002BF1D100E016
:101BC80000BF7B681B6803F00203002B4BD0FB6946
:101BD800042B05D0FB690C2B13D1BB69022B10D148
:101BE800FFF7B8FC0346002B05D07B681B69002B68
:101BF80001D1012335E27B685B691846FFF7BBFC1E
:101C080031E07B681B69002B19D0FFF787FCFEF7D2
:101C1800C7FC786108E0FEF7C3FC02467B69D31A6B
:101C2800022B01D903231CE2FFF794FC0346002B87
:101C3800F1D07B685B691846FFF79DFC13E0FFF75E
:101C48007BFCFEF7ADFC786108E0FEF7A9FC0246D4
:101C58007B69D31A022B01D9032302E2FFF77AFC2E
:101C68000346002BF1D17B681B6803F00803002BA7
:101C78006FD07B689B69002B57D04FF0B043D3F8E7
:101C88009430FB607B68DA69FB6803F010039A42C2
:101C980036D0FB6803F00203002B06D0FB6803F084
:101CA8000103002B01D10123DBE1FB6803F00103F1
:101CB800002B18D0FFF794FCFEF772FC78610DE05A
:101CC800FEF76EFC02467B69D31A112B06D9032353
:101CD800C7E100BF0000002004000020FFF790FCCF
:101CE8000346002BECD14FF0B043D3F8943023F0E7
:101CF80010027B68DB694FF0B0411343C1F89430A0
:101D0800FFF75EFCFEF74CFC786108E0FEF748FC44
:101D180002467B69D31A112B01D90323A1E1FFF7EE
:101D28006FFC0346002BF1D013E0FFF759FCFEF7D8
:101D380037FC786108E0FEF733FC02467B69D31A6A
:101D4800112B01D903238CE1FFF75AFC0346002B22
:101D5800F1D17B681B6803F00403002B00F0D880E6
:101D6800FFF770FB0346002B13D1FFF727FBFEF7A5
:101D780017FC786108E0FEF713FC02467B69D31A6A
:101D8800022B01D903236CE1FFF75CFB0346002B10
:101D9800F1D07B68DB68002B7BD07B68DB68852B08
:101DA80003D07B68DB68052B09D14FF0B043D3F82B
:101DB80090304FF0B04243F00403C2F89030FEF781
:101DC800EFFB78614FF0B043D3F890304FF0B0425A
:101DD80043F00103C2F890300AE0FEF7E1FB024647
:101DE8007B69D31A41F28832934201D9032338E13F
:101DF800FFF7D5FB0346002BEFD07B68DB68812B10
:101E080003D07B68DB68852B21D1FEF7C9FB78619D
:101E18004FF0B043D3F890304FF0B04243F0800316
:101E2800C2F890300AE0FEF7BBFB02467B69D31A82
:101E380041F28832934201D9032312E14FF0B043B3
:101E4800D3F8903003F40063002BECD060E0FEF789
:101E5800A7FB78614FF0B043D3F890304FF0B04211
:101E680023F08003C2F890300AE0FEF799FB02469F
:101E78007B69D31A41F28832934201D90323F0E0F7
:101E88004FF0B043D3F8903003F40063002BECD14B
:101E98003EE0FEF785FB78614FF0B043D3F8903011
:101EA8004FF0B04223F08003C2F890300AE0FEF70A
:101EB80077FB02467B69D31A41F28832934201D9F3
:101EC8000323CEE04FF0B043D3F8903003F400631F
:101ED800002BECD1FEF764FB78614FF0B043D3F8E8
:101EE80090304FF0B04223F00103C2F890300AE07E
:101EF800FEF756FB02467B69D31A41F288329342B9
:101F080001D90323ADE0FFF74AFB0346002BEFD1CD
:101F18007B68DB6A002B00F0A380FB690C2B76D072
:101F28007B68DB6A022B4BD1FFF775FCFEF738FBA9
:101F3800786108E0FEF734FB02467B69D31A0A2B66
:101F480001D903238DE0FFF774FC0346002BF1D180
:101F58004FF0B043DA68454B13407A68116B7A68E2
:101F6800526B11437A68926B120211437A68D26BF2
:101F780011437A68126C11437A68526C0A434FF025
:101F8800B0411343CB60FFF738FC4FF0B043DB6838
:101F98004FF0B04243F08053D360FEF701FB786105
:101FA80008E0FEF7FDFA02467B69D31A0A2B01D92D
:101FB800032356E0FFF73DFC0346002BF1D04FE02A
:101FC800FFF729FC4FF0B043DB684FF0B04223F035
:101FD8000303D3604FF0B043DB684FF0B04223F007
:101FE800885323F48033D360FEF7DAFA786108E087
:101FF800FEF7D6FA02467B69D31A0A2B01D90323C6
:102008002FE0FFF716FC0346002BF1D128E07B6890
:10201800DB6A012B01D1012323E04FF0B043DB68D9
:10202800BB61BB6903F003027B681B6B9A4215D145
:10203800BB6903F070027B685B6B9A420ED1BB6987
:1020480003F4FE427B689B6B1B029A4206D1BB6974
:1020580003F060427B685B6C9A4201D0012300E088
:10206800002318462037BD4680BD00BF8C80C111B3
:1020780080B584B000AF786039607B68002B01D1EF
:1020880001230FE1894B1B6803F007033A689A4262
:102098001BD9864B1B6823F0070284493B6813430E
:1020A8000B60FEF77DFAF86008E0FEF779FA024661
:1020B800FB68D31A022B01D90323F3E07B4B1B687F
:1020C80003F007033A689A42EFD17B681B6803F074
:1020D8000203002B16D07B689B681846FFF726FB87
:1020E800FEF75EFAF86008E0FEF75AFA0246FB6867
:1020F800D31A022B01D90323D4E0FFF7D8FB0346F8
:10210800002BF1D07B681B6803F04003002B16D02E
:102118007B685B691846FFF71CFBFEF741FAF8601D
:1021280008E0FEF73DFA0246FB68D31A022B01D9F4
:102138000323B7E0FFF7CCFB0346002BF1D07B6805
:102148001B6803F00403002B16D07B68DB68184675
:10215800FFF715FBFEF724FAF86008E0FEF720FA0F
:102168000246FB68D31A022B01D903239AE0FFF732
:10217800C1FB0346002BF1D07B681B6803F0080302
:10218800002B17D07B681B69DB001846FFF70AFB9A
:10219800FEF706FAF86008E0FEF702FA0246FB6866
:1021A800D31A022B01D903237CE0FFF7B4FB0346C3
:1021B800002BF1D07B681B6803F00103002B43D090
:1021C8007B685B68022B06D1FFF797F90346002B63
:1021D8001ED1012366E07B685B68032B06D1FFF7FD
:1021E80028FB0346002B13D101235BE07B685B6867
:1021F800002B06D1FFF731FA0346002B08D1012343
:1022080050E0FFF7A7F90346002B01D1012349E06D
:102218007B685B681846FFF76BFAFEF7C1F9F86050
:102228000AE0FEF7BDF90246FB68D31A41F288328C
:10223800934201D9032335E0FFF76DFA02467B6824
:102248005B689B009A42ECD1184B1B6803F00703AC
:102258003A689A421BD2154B1B6823F007021349B0
:102268003B6813430B60FEF79BF9F86008E0FEF744
:1022780097F90246FB68D31A022B01D9032311E010
:102288000A4B1B6803F007033A689A42EFD100F043
:10229800B3F80346064A1360064B1B681846FEF758
:1022A80033F9034618461037BD4680BD0040005834
:1022B800000000200400002090B587B000AF002384
:1022C8007B6100233B61FFF726FAB860FFF7E4FA69
:1022D8007860BB68002B05D0BB680C2B39D17B68B4
:1022E800012B36D1FFF7C9F90346002B15D1FFF7AB
:1022F800C4F90346012B06D1FFF7CFF903461B0AA1
:1023080003F00F0305E0FFF7D3F903461B0A03F0B8
:102318000F03364A52F8233014E0FFF7AEF90346AC
:10232800012B06D1FFF7B9F903461B0903F00F0388
:1023380005E0FFF7BDF903461B0903F00F032B4A1D
:1023480052F823303B61BB68002B15D13B697B6198
:1023580012E0BB68042B02D1254B7B610CE0BB6803
:10236800082B09D1FFF79CF80346012B02D1204B1B
:102378007B6101E01F4B7B61FFF7CDF903460C2B16
:102388002FD1FFF789FA78607B68022B03D07B682E
:10239800032B03D00DE0164BFB600DE0FFF780F830
:1023A8000346012B02D1124BFB6005E0114BFB6089
:1023B80002E03B69FB6000BFFFF74CFA0246FB688E
:1023C80003FB02F4FFF75DFA03461B090133B4FB74
:1023D800F3F4FFF74BFA03465B0F0133B4FBF3F357
:1023E8007B617B6918461C37BD4690BD742A00087E
:1023F8000024F4000048E80198B500AFFFF75CFF3F
:102408000446FFF7E2F903461B0903F00F03034AEA
:1024180052F82330B4FBF3F3184698BD342A000869
:1024280090B585B000AF78607B681B0903F00F0397
:10243800104A52F82330FB60FFF7D2F903461B0914
:1024480003F00F030C4A52F82330FA68B2FBF3F397
:10245800BB60BB68094AA2FB03239C0CFEF7BCFFC8
:1024680003461946204600F00BF803461846143771
:10247800BD4690BD742A0008342A000883DE1B4339
:1024880080B58EB000AF786039603A4A07F1200312
:1024980092E80300186004331980374A07F11803DB
:1024A80092E80300186004331980344A07F10C03DA
:1024B80007CA83E8070000237B633B68B3F5007F06
:1024C8001BD100233B6314E03B6B5B0038333B4478
:1024D80033F8183C1A467B68934207D83B6B9B003D
:1024E80038333B4453F82C3C7B6321E03B6B01338E
:1024F8003B633B6B022BE7D91AE00023FB6214E035
:10250800FB6A5B0038333B4433F8203C1A467B684F
:10251800934207D8FB6A9B0038333B4453F82C3C62
:102528007B6305E0FB6A0133FB62FB6A022BE7D998
:10253800134B1B6823F0070211497B6B13430B6095
:10254800FEF72EF8B86208E0FEF72AF80246BB6AE2
:10255800D31A022B01D9032307E0094B1B6803F0A8
:1025680007037A6B9A42EFD1002318463837BD46E5
:1025780080BD00BF182A0008202A0008282A000861
:102588000040005880B400AF4FF0B043D3F890300B
:1025980003F00203022B01D1012300E000231846B7
:1025A800BD4680BC704780B483B000AF78604FF000
:1025B800B043D3F888207B681B0CDB431A407B6848
:1025C8009BB24FF0B0411343C1F8883000BF0C37BD
:1025D800BD4680BC704780B483B000AF78604FF0D0
:1025E800B043D3F8883023F440724FF0B0417B6891
:1025F8001343C1F8883000BF0C37BD4680BC704714
:1026080080B483B000AF78604FF0B043D3F888301F
:1026180023F440624FF0B0417B681343C1F888301F
:1026280000BF0C37BD4680BC704780B483B000AF94
:1026380078604FF0B043D3F888207B681B0903F417
:102648007F23DB431A407B681B0103F47F234FF091
:10265800B0411343C1F8883000BF0C37BD4680BC79
:10266800704780B483B000AF78604FF0B043D3F8C0
:1026780088207B681B0C1B04DB431A407B681B0407
:102688004FF0B0411343C1F8883000BF0C37BD4646
:1026980080BC704780B483B000AF78604FF0B0431F
:1026A800D3F8883023F040424FF0B0417B681343A1
:1026B800C1F8883000BF0C37BD4680BC704780B475
:1026C80083B000AF78604FF0B043D3F8883023F080
:1026D80040524FF0B0417B681343C1F8883000BFC7
:1026E8000C37BD4680BC704780B483B000AF7860BB
:1026F8004FF0B043D3F8903023F440724FF0B0411C
:102708007B681343C1F8903000BF0C37BD4680BCCE
:10271800704780B400AF4FF0B043D3F8903003F463
:1027280040731846BD4680BC704780B400AF4FF078
:10273800B043D3F890304FF0B04243F48033C2F83E
:10274800903000BFBD4680BC704780B400AF4FF0EA
:10275800B043D3F890304FF0B04223F48033C2F83E
:10276800903000BFBD4680BC7047000080B586B081
:1027780000AF786000237B610023FB740023BB74E7
:102788007B681B6803F48033002B58D0FEF716FED5
:10279800FDF706FFF86009E0FDF702FF0246FB6857
:1027A800D31A022B02D90323FB7406E07B4B1B6868
:1027B80003F48073B3F5807FEED1FB7C002B3CD112
:1027C800FFF7A7FF02467B685B6B9A420FD04FF07A
:1027D800B043D3F8903023F440737B61FFF7A5FF33
:1027E800FFF7B3FF4FF0B0427B69C2F890307B69C6
:1027F80003F00203002B14D0FDF7D2FEF8600BE0C3
:10280800FDF7CEFE0246FB68D31A41F288329342A6
:1028180002D90323FB7404E0FFF7B4FE0346012B3F
:10282800EED1FB7C002B05D17B685B6B1846FFF76C
:102838005BFF04E0FB7CBB7401E0FB7CBB747B6842
:102848001B6803F00103002B04D07B685B68184603
:10285800FFF7A9FE7B681B6803F00203002B04D076
:102868007B689B681846FFF79EFE7B681B6803F031
:102878002003002B04D07B681B691846FFF7C0FEB5
:102888007B681B6803F40073002B04D07B681B6A09
:102898001846FFF7E6FE7B681B6803F48063002B8D
:1028A80004D07B685B6A1846FFF7DBFE7B681B6811
:1028B80003F40063002B04D07B689B6A1846FFF77B
:1028C800D0FE7B681B6803F04003002B04D07B68B4
:1028D8005B691846FFF7A9FE7B681B6803F0800355
:1028E800002B04D07B689B691846FFF79EFE7B6827
:1028F8001B6803F48073002B04D07B68DB691846DF
:10290800FFF793FE7B681B6803F01003002B11D0C0
:102918007B68DB681846FFF75EFE7B68DB68B3F50B
:10292800807F07D14FF0B043DB684FF0B04243F0EF
:102938008073D3607B681B6803F40043002B10D0BE
:102948007B681B6B1846FFF7A5FE7B681B6B002B8B
:1029580007D14FF0B043DB684FF0B04243F08073CB
:10296800D3607B681B6803F48043002B11D07B681D
:10297800DB6A1846FFF7A3FE7B68DB6AB3F1005FEA
:1029880007D14FF0B043DB684FF0B04243F48033D7
:10299800D360BB7C18461837BD4680BD000400587C
:1029A80070B50D4D0D4C641BA4100026A64209D12C
:1029B8000B4D0C4C00F020F8641BA4100026A64216
:1029C80005D170BD55F8043B98470136EEE755F838
:1029D800043B98470136F2E7B42A0008B42A0008F5
:1029E800B42A0008B82A000802440346934200D1DA
:1029F800704703F8011BF9E7F8B500BFF8BC08BC3D
:102A08009E467047F8B500BFF8BC08BC9E467047A4
:102A1800120024003000000006000C001000000026
:102A2800000000000100000002000000010000009A
:102A38000300000005000000010000000100000084
:102A4800060000000A00000020000000020000004C
:102A58000400000008000000100000004000000012
:102A6800800000000001000000020000A0860100B4
:102A7800400D0300801A060000350C0040420F008C
:102A880080841E0000093D0000127A000024F40032
:102A980000366E010048E801006CDC02000000000E
:0C2AA80000000000000000000000000022
:042AB4005D010008B8
:042AB80039010008D8
:0C2ABC0000093D001000000001000000B7
:040000050800047D6E
:00000001FF
